:020000040800F2
:100000006848002099010008951E0008971E000806
:10001000991E00089B1E00089D1E0008000000009D
:1000200000000000000000000000000001010008C6
:100030009F1E00080000000045010008A11E0008E6
:10004000B3010008B3010008B3010008B3010008C0
:10005000B3010008B3010008B3010008B3010008B0
:10006000B3010008B3010008B3010008B3010008A0
:10007000B3010008B3010008B3010008B301000890
:10008000B3010008B3010008D73A0008B301000823
:10009000B3010008B3010008B3010008B301000870
:1000A000B3010008B3010008B3010008B301000860
:1000B000B3010008B3010008332F0008B3010008A2
:1000C000B3010008B3010008B3010008B301000840
:1000D000B3010008B3010008B3010008B301000830
:1000E000B3010008B3010008B3010008DFF80CD029
:1000F00006F0AAFB00480047AB1D00086848002036
:10010000224B19680868B0E8F00F80F30988BFF344
:100110006F8F4FF0000080F311884EF00D0E704786
:100120000000000006480068006880F3088862B696
:1001300061B6BFF34F8FBFF36F8F00DF00BF00BF0B
:1001400008ED00E0EFF30980BFF36F8F0F4B1A68E3
:1001500020E9F00F106008B54FF0500080F31188CF
:10016000BFF34F8FBFF36F8F04F0ABFE4FF0000073
:1001700080F31188BDE8084019680868B0E8F00FFE
:1001800080F30988BFF36F8F704700BF6C000020B9
:10019000EFF3058070470000064880470648004797
:1001A000FEE7FEE7FEE7FEE7FEE7FEE7FEE7FEE727
:1001B000FEE7FEE75D020008ED0000080CB5002236
:1001C0004C4800920192016841F4803101604FF483
:1001D000A063016801F4003101910099491C00916C
:1001E000019911B900999942F3D10168890333D576
:1001F0000121019140490A6842F010020A600A6830
:1002000022F003020A600A6842F002020A604168B2
:10021000416041684160416841F4806141604168EA
:1002200021F47C114160416841F4E81141600168AA
:1002300041F08071016001688901FCD5416821F0BD
:1002400003014160416841F0020141604168C1F32E
:1002500081010229FAD10CBD01920CBD254810B5CF
:10026000016841F0010101604168244A1140416088
:100270000168234A11400160016821F48021016076
:10028000416821F4FE0141604FF41F018160FFF7D6
:1002900095FF1C494FF00060086010BD154A10B56D
:1002A0005068194B10F00C01184803D0042901D0F4
:1002B000082901D0036012E05168536801F47011FD
:1002C0004FF0020413F4803F04EB914102D05368D5
:1002D0009B0301D50E4B00E00B4B59430160516865
:1002E0000A4AC1F30311121D515C0268CA40026040
:1002F00010BD000000100240002002400000FFF886
:10030000FFFFF6FE08ED00E000127A00000000207A
:1003100000093D002849084328490860704730B566
:100320000F23C27801780125F2B1244A126801F145
:10033000E02102F4E062C2F5E062120AC2F10404B4
:10034000D3404278A24084781C401443220181F8B3
:100350000024007800F01F018D404009800000F16A
:10036000E020C0F8005130BD01F01F008540480971
:10037000800000F1E020C0F8805130BD104A1140EB
:1003800001430E48001F016070470C4A121D0029EE
:10039000116801D0014300E08143116070474FF0C4
:1003A000E0210428086903D020F0040008617047A8
:1003B00040F00400FAE700000000FA050CED00E050
:1003C00080FFFF1FC54910B5884202D101214415A5
:1003D0000AE0C349884202D10121041504E0C14961
:1003E00088420AD10121CC03204600F0D4FB2046EC
:1003F000BDE81040002100F0CEBB10BD10B5426832
:10040000B94B0C791A400B6842EA0422134343604B
:100410008268B64B1A40D1E9024323434C7942EA41
:10042000440213438360C26A097C22F47002491EAD
:10043000C9B242EA0151C16210BD002101600171DF
:1004400041718160C1600121017470470029816898
:1004500002D041F0010101E021F00101816070470B
:100460000029816802D041F4807101E021F480719B
:1004700081607047002A4268C9B201D00A4300E097
:100480008A4342607047816841F00801816070478B
:10049000014600208968090700D50120704781685E
:1004A00041F00401816070470146002089684907D6
:1004B00000D5012070470029816802D041F4A001D5
:1004C00001E021F4A00181607047014600208968A5
:1004D000490200D5012070474268491E22F460425B
:1004E00042EA4131416070470029416802D041F43D
:1004F000006101E021F400614160704770B507269A
:1005000009290AD9C568A1F10A0404EB4404A640EC
:10051000B543A3401D43C56007E0056901EB4104F5
:10052000A640B543A3401D4305611F23072A09D2F6
:10053000446B521E02EB820293409C4391400C4359
:10054000446370BD0D2A09D2046BD21F02EB8202F4
:1005500093409C4391400C43046370BDC46A0D3AC0
:1005600002EB820293409C4391400C43C46270BDF5
:100570000029816802D041F4801101E021F480114A
:1005800081607047C06C80B2704754484C3000683E
:1005900070470029416802D041F4806101E021F4F4
:1005A0008061416070470029416802D041F4805168
:1005B00001E021F4805141607047826822F4E042FA
:1005C0000A43826070470029816802D041F40041EB
:1005D00001E021F40041816070470029816802D068
:1005E00041F4021101E021F40211816070470146DB
:1005F00000208968890200D50120704770B5072660
:1006000009290AD9C568A1F10A0404EB4404A640EB
:10061000B543A3401D43C56007E0056901EB4104F4
:10062000A640B543A3401D430561836BC3F301544A
:10063000121B921C02EB82021F249440A3439140A0
:100640000B43836370BD826B491E22F4401242EA61
:1006500001518163704708B508440090026008BDED
:1006600008B5084428300090006880B208BD426890
:100670001F4B1A400A4342607047416282627047D2
:10068000426822F01F020A43426070471349083152
:100690000028086802D040F4000001E020F40000C7
:1006A000086070470246002012680A4200D001200C
:1006B0007047C9430160704710B502460020546876
:1006C0000B0AC9B20C401168194202D0002C00D0AC
:1006D000012010BD6FEA1121016070470024014024
:1006E00000280140003C0140FFFEF0FFFDF7F1FF54
:1006F000FFFD3FFF8F4910B5884206D1012104203C
:1007000000F049FA002104203BE08B49884206D1E1
:100710000121082000F03FFA0021082031E087493C
:10072000884206D10121102000F035FA0021102066
:1007300027E08349884206D10121202000F02BFACE
:10074000002120201DE07F49884206D10121402060
:1007500000F021FA0021402013E07B49884206D1B5
:100760000121802000F017FA0021802009E077495C
:1007700088420AD184150121204600F00CFA00219C
:100780002046BDE8104000F006BA10BD10B50121AA
:10079000084600F000FA0021BDE81040012000F0FA
:1007A000FAB9F0B5CC78002204F00F03E40601D5C5
:1007B0008C7823430C784FF00F0C14F0FF0F4FF0A0
:1007C000010E1BD005680E880EFA02F42640A642E0
:1007D00010D196000CFA06F725EA070703FA06F58A
:1007E000CE783D43282E02D0482E02D002E044614C
:1007F00000E00461521C082AE5D305600A88FF2A3C
:100800001CD94468002202F108060EFA06F50E888B
:100810002E40AE420ED196000CFA06F7BC4303FA06
:1008200006F7CE783C43282E00D14561CE78482E7D
:1008300000D10561521C082AE5D34460F0BD4FF693
:10084000FF710180022181700421C170704702464E
:10085000002092680A4200D001207047806880B270
:10086000704702460020D2680A4200D0012070473B
:10087000C06880B2704701617047416170470AB13A
:100880000161704741617047C160704741F4803237
:100890008261816182618169806970472C4B10B5EA
:1008A0001A684FF68074224042EA0010084318602C
:1008B00010BD2849C8617047F0B5254C002801DA01
:1008C000E36900E06368450D2E0185B2C0F301576E
:1008D000B540C0F30342032F05D0C6020AD5032654
:1008E0009640B34307E023F07062636823F07063BF
:1008F000636002E0AB4343F0706201B12A43002819
:1009000001DAE261F0BD6260F0BD10B58A0721F046
:1009100003040F49120F21440F238C6893409C431A
:100920008C608B68904003438B6010BD0949C1F80F
:10093000DC00704700080140000C0140001001403D
:100940000014014000180140001C0140002001403B
:100950000000014000002042A548016841F001016B
:1009600001604168A34A114041600168A24A1140F8
:100970000160016821F480210160416821F4FE01D9
:1009800041604FF41F018160704799490A6822F461
:1009900080320A600A6822F480220A60B0F5803F43
:1009A00007D0B0F5802F03D1086840F4A02008607C
:1009B0007047086840F48030F9E703460020590981
:1009C0008B4A01290AD002290AD0516A03F01F027A
:1009D000012393400B4200D0012070471168F5E7D6
:1009E000116AF3E718B500204FF4A064009031209D
:1009F000FFF7E3FF0099491C0091A14201D00028B4
:100A0000F5D03120FFF7D9FF002800D0012018BD14
:100A1000774A116821F0F80141EAC0001060704780
:100A2000764908607047724B5A68084322F47C127A
:100A30001043586070477149086670476C4A5168A6
:100A400021F003010143516070476948406800F09C
:100A50000C007047664A516821F0F0010143516073
:100A60007047634A516821F4E06101435160704767
:100A70005F4A516821F4605141EAC00050607047FC
:100A80005B4A0029517A01D0014300E08143517251
:100A900070475A49C1F8D8007047554A516821F447
:100AA00040410143516070475149002281F82020A4
:100AB00081F82020012802D0042802D1052081F8E5
:100AC000200070474E490860704749490A6A02434E
:100AD0000A6270474A4944390860704730B5444A51
:100AE0005168484B11F00C0103D0042901D00829AA
:100AF00001D0036012E05168536801F470114FF0A7
:100B0000020413F4803F04EB914102D053689B032D
:100B100001D53D4B00E03B4B5943016051680F2329
:100B200003EA1111394B5C5C0168E1404160546893
:100B3000072505EA14241C5D21FA04F48460546836
:100B400005EAD4241B5DD940C1605268032303EA3F
:100B500092322E4B1B1F9A5CB1FBF2F1016130BD4A
:100B6000234A0029516901D0014300E081435161CA
:100B700070471F4A0029916901D0014300E0814379
:100B8000916170471A4A0029D16901D0014300E000
:100B90008143D1617047164A0029D16801D00143D1
:100BA00000E08143D1607047114A0029116901D0EA
:100BB000014300E0814311617047114940390860E9
:100BC00070470E49C86470470949C87170470848A2
:100BD000416A41F0807141627047054A0146002038
:100BE00092680A4200D0012070470149887270471C
:100BF000001002400000FFF8FFFFF6FE0000424236
:100C00008004424200127A0000093D0018000020D2
:100C1000994910B588420AD1841401212046FFF772
:100C2000BAFF2046BDE810400021FFF7B4BF93494A
:100C3000884202D10121041404E0914988420AD17A
:100C40000121C4132046FFF7AFFF2046BDE8104046
:100C50000021FFF7A9BF10BD30B502884C8802F40F
:100C600041530A88CD8822438C882C4322430C8927
:100C700022434C8922438C892243CC8922431A4344
:100C80000280828B22F400628283098A018230BD55
:100C9000F0B505460C4602200021AA8B85B001263E
:100CA0004FF240031A40AA832884AF8BA268022A1D
:100CB00021D0A08800B102266846FFF70FFFE18827
:100CC0000098B1F5007F2CD07101B0FBF1F000EB82
:100CD0008000A1684000B0FBF1F0401D80B20A2105
:100CE000B0FBF1F000F00101401A4FF6FF72C0F3C3
:100CF0004F0002EA0121821EFE2A01D302200021B8
:100D0000E288084302432A8420886188A289084334
:100D1000A18811430843384340F40060A88305B01C
:100D2000F0BD000AD3E70021018041808180C180AD
:100D3000018141818181C1810721018270470021A8
:100D4000018041808180C180022282608181704760
:100D50000029018802D041F0400101E021F040016A
:100D6000018070470029818B02D041F4806101E04D
:100D700021F4806181837047090901238B40002A97
:100D8000828899B201D00A4300E08A43828070478A
:100D9000002A828801D00A4300E08A43828070479B
:100DA0008181704780897047A1F57E420188FF3AB2
:100DB00002D041F4807101E021F48071018070471C
:100DC0000029818802D041F0040101E021F00401F2
:100DD00081807047028822F40062028002880A4300
:100DE00002807047018841F48051018070470029DA
:100DF000018802D041F4005101E021F4005101804A
:100E00007047012901D0008B7047808A7047008AA3
:100E10007047B1F5804F018803D021F480410180F3
:100E2000704741F48041FAE70246002012890A42E5
:100E300000D001207047C9430181704730B501F0EF
:100E40000F030125024605FA03F40020A3B20909A5
:100E500005FA01F49188A4B2128921401A4202D005
:100E6000002900D0012030BD01F00F020121914086
:100E7000C943018170470000003001400038004044
:100E8000003C0040F94910B5884202D10121C41448
:100E900086E0B0F1804F09D0F54988420DD101219B
:100EA0000220FFF781FE0021022064E001210846B4
:100EB000FFF77AFE002101205DE0EE49884206D16D
:100EC00001210420FFF770FE0021042053E0EA49CD
:100ED000884206D101210820FFF766FE0021082084
:100EE00049E0E649884206D101211020FFF75CFE67
:100EF000002110203FE0E249884206D10121202054
:100F0000FFF752FE0021202035E0DE49884202D161
:100F10000121441444E0DC49884202D10121CC047F
:100F20003EE0DA49884202D101210C0538E0D84977
:100F3000884202D101214C0532E0D649884206D1CF
:100F400001214020FFF730FE0021402013E0D2496C
:100F5000884206D101218020FFF726FE0021802053
:100F600009E0CE4988420AD1841501212046FFF7C5
:100F70001BFE00212046BDE81040FFF715BEC84902
:100F8000884202D101210C040AE0C649884202D1FC
:100F900001214C0404E0C44988420AD101218C0497
:100FA0002046FFF7F8FD2046BDE810400021FFF77E
:100FB000F2BD10BD30B50288AC4CB24DA0420DD090
:100FC000A8420BD0B0F1804F08D0A94B984205D071
:100FD000A84B984202D0A84B984203D122F070034C
:100FE0004A881A43A54B984206D0A54B984203D095
:100FF00022F44073CA881A4302808A8882850A884C
:101000000285A0420AD0A84208D0A54A904205D045
:10101000A44A904202D0A44A904201D1097A0186A2
:101020000121818230BD30B5028C22F001020284A0
:10103000028C8388048B22F0020224F073050C8852
:101040002C430D8915434A882A43884DA8420BD06A
:101050008C4DA84208D0924DA84205D0914DA8428F
:1010600002D0914DA8420DD122F008054A8923F4FF
:1010700040732A4322F004058A882A438D891D4340
:10108000CB892B4383800483C9888186028430BD49
:1010900070B5028C22F010020284028C8388048BCB
:1010A0000D8824F4E6464FF6FF7404EA052535431F
:1010B0000E8922F0200204EA061616434A8804EA42
:1010C00002123243694EB04202D06E4EB04215D188
:1010D00022F080064A8923F4406304EA0212324374
:1010E00022F040068A8804EA021232438E8904EA1A
:1010F00086061E43CB8904EA83033343838005833A
:10110000C9880187028470BD70B5028C22F4807298
:101110000284028C8388848B0D8824F07304254319
:101120000E894FF6FF7422F4007204EA0626164375
:101130004A8804EA022232434C4EB04202D0514E59
:10114000B04215D122F400664A8923F4405304EAE0
:101150000222324322F480668A8804EA0222324361
:101160008E8904EA06161E43CB8904EA031333432F
:1011700083808583C9888187028470BD70B5028CA5
:1011800022F480520284058C8288838B0C8823F49D
:10119000E6464FF6FF7303EA0424344325F4005671
:1011A0000D8903EA053535434E8803EA06362E439A
:1011B0002E4DA84202D0334DA84205D122F48045DD
:1011C0008A8903EA82122A4382808483C988A0F82C
:1011D0004010068470BD828B22F440628283828B31
:1011E0004FF6FF7303EA01210A4382837047828B23
:1011F00022F00C028283828B0A4382837047028B27
:1012000022F440620283028B4FF6FF7303EA01214E
:101210000A4302837047F0B5048C24F01004048460
:10122000078B048C4FF6FF7527F4734705EA0333E9
:101230003B4305EA02221A430C4B05EA0116984289
:101240000ED0104B98420BD0B0F1804F08D0084B15
:10125000984205D0074B984202D0074B984225D1BF
:1012600024F02001314341F0100124E0002C014022
:101270000004004000080040000C00400010004046
:101280000014004000340140004C01400050014077
:101290000054014000180040001C004000200040A5
:1012A00000400140004401400048014024F0A003F8
:1012B0000B4343F0100102830184F0BD028B22F046
:1012C0000C020283028B0A430283704770B5048CC0
:1012D00024F001040484058B048C4FF6FF7606EAA3
:1012E0000313134325F0F305F84A2B4390420ED025
:1012F000F74A90420BD0B0F1804F08D0F54A9042A7
:1013000005D0F54A904202D0F44A904202D124F02E
:10131000020201E024F00A020A4342F001010383C1
:10132000018470BD2DE9F84F0D4604460888E74F4B
:10133000DFF89CC3DFF89C83DFF89C934988AA8878
:101340002B894FF0804A48B304282FD04FF6FF7600
:101350000828934632D0208C9E4620F4805020846A
:10136000A38B208C06EA0132009223F4734306EA31
:101370000B221A4306EA0E331343BC420AD06445DB
:1013800008D0544506D0444504D04C4502D0D34A39
:10139000944242D120F40050009940E02046FFF7EB
:1013A00095FFE9882046BDE8F84F87E72046FFF71C
:1013B00032FFE9882046BDE8F84F20E7208C20F472
:1013C00080702084B4F81CE0208C06EA031306EA3F
:1013D00001222EF0F30E43EA0B0343EA0E030092C0
:1013E000BC420AD0644508D0544506D0444504D0D8
:1013F0004C4502D0B94A944203D120F400700099C0
:1014000001E020F42060084340F48070A38320842E
:10141000E9882046BDE8F84FE9E620F40240084399
:1014200040F48050A3832084E9882046BDE8F84F2B
:10143000D1E62DE9F0410C460026498807460125F2
:1014400001B90226A288012A00D102252088238919
:101450000028384610D0FFF7DEFEE1883846FFF757
:10146000CEFE23892A4631463846FFF72FFFE18812
:101470003846BDE8F04121E7FFF728FFE18838460C
:10148000FFF71CFF23892A4631463846FFF7C3FE83
:10149000E1883846BDE8F041B1E610B50A884B88CE
:1014A000CC881A438B8823431A430B891A434B89F0
:1014B00089891A430A43A0F8442010BD4FF6FF71F2
:1014C000818000210180C18041800172704700212C
:1014D000018041808180C180018141818181C18100
:1014E000704700210180418001228280C1800181FA
:1014F00070470021018041808180C180018141814C
:10150000818170470029018802D041F0010101E08A
:1015100021F0010101807047002930F8441F02D0FA
:1015200041F4004101E0C1F30E0101807047002A3F
:10153000828901D00A4300E08A4382817047818218
:1015400070471143A0F848107047002A828901D0E3
:101550000A4300E08A4382817047018921F0070134
:1015600001817047028922F070020A4302817047AC
:1015700000B50346FFF7F6FF188940F00700188111
:1015800000BD70B516460D46602904464FF00102B5
:1015900031460AD0FFF79AFE29462046FFF7E2FFC0
:1015A000208940F00700208170BDFFF734FEF3E78B
:1015B00030B504894FF6FF7505EA03231343E4B2FF
:1015C0000B432343038130BD10B50446FFF7F0FF02
:1015D000208940F07700208110BD10B50446FFF748
:1015E000E7FF208940F48040208110BD0185828280
:1015F0007047028822F070020A430280704770B57B
:101600000589048B068C25F007050D434FF6FC4138
:101610000C4040F201110C434FF6FF7101EA031137
:1016200026F022061143314305810483018470BDF5
:10163000028B22F070020A4302837047028B4FF63E
:10164000FF7322F4E04203EA012111430183704752
:10165000828B22F070020A4382837047828B4FF69E
:10166000FF7322F4E04203EA0121114381837047B2
:101670000029018802D041F0800101E021F08001C1
:10168000018070470029818802D041F0040101E007
:1016900021F00401818070470029818802D041F047
:1016A000080101E021F0080181807047002981884C
:1016B00002D041F0010101E021F001018180704779
:1016C000028B22F008020A4302837047002C01407B
:1016D000003401400004004000080040000C0040BD
:1016E000028B4FF6FF7322F4006203EA01211143DB
:1016F0000183EAE7828B22F008020A438283E4E74F
:10170000828B4FF6FF7322F4006203EA012111433A
:101710008183DAE7028B22F004020A430283D4E7D2
:10172000028B4FF6FF7322F4806203EA012111431A
:101730000183CAE7828B22F004020A438283C4E752
:10174000828B4FF6FF7322F4806203EA012111437A
:101750008183BAE7028B22F080020A430283B4E756
:10176000028B4FF6FF73C2F30E0203EA012111430D
:101770000183AAE7828B22F080020A438283A4E7D6
:10178000828B4FF6FF73C2F30E0203EA012111436D
:1017900081839AE7028C22F002020A43028494E7D2
:1017A000028C22F008020A4302848EE7028C4FF674
:1017B000FF7322F0200203EA01111143018484E740
:1017C000028C4FF6FF7322F0800203EA01111143ED
:1017D00001847AE7028C4FF6FF7322F4007203EA69
:1017E00001211143018470E7028C4FF6FF7322F44C
:1017F000006203EA01211143018466E7028C4FF67F
:10180000FF7322F4005203EA0131114301845CE7C3
:1018100010B50123048C8B409C430484038C8A40C4
:101820001343038410BD10B50423048C8B409C43E8
:101830000484038C8A401343038410BD30B5012413
:10184000058C00F118038C40A543058489B1082953
:101850000FD0091FC1F34E001844016821F4E04184
:10186000016001684FF6FF7303EA02221143016031
:1018700030BD03EB5100016821F070010160016887
:10188000F4E70029018802D041F0020101E021F0D3
:101890000201018019E70029018802D041F004010A
:1018A00001E021F0040101800FE70029818802D0C6
:1018B00041F0800101E021F08001818005E702888C
:1018C00022F00802028002880A430280FDE6828834
:1018D00022F07002828082880A438280F5E60289C3
:1018E00022F00702028102890A430281EDE60289A1
:1018F00022F08002028102890A430281E5E68184A6
:10190000E3E68185E1E68186DFE60187DDE6818722
:10191000DBE6A0F84010D8E6028822F4407202808C
:1019200002880A430280D0E6808ECEE6008FCCE6A5
:10193000808FCAE6B0F84000C7E6808CC5E6008D0F
:10194000C3E602460020128A0A4200D00120BCE60B
:10195000C9430182B9E602460020138A92890B42EC
:1019600002EA010202D0002A00D00120ADE6C943FC
:101970000182AAE6C44910B588420AD101218C032C
:101980002046FFF708F92046BDE810400021FFF788
:1019900002B9BE49884202D101214C0410E0BC4981
:1019A000884202D101218C040AE0BA49884202D15E
:1019B0000121CC0404E0B84988420AD101210C0578
:1019C0002046FFF7F1F82046BDE810400021FFF760
:1019D000EBB810BD30B50446008A85B00D464CF614
:1019E000FF710840E98801432182A0894EF6F31176
:1019F0000840A9882A8911436A8902431143A181B9
:101A0000A08A4FF6FF410840A9890143A182684698
:101A1000FFF764F89C48844201D1039800E00298E3
:101A2000A189090400EBC00101EB0010296801D570
:101A3000490000E08900B0FBF1F06422B0FBF2F154
:101A400009010B096FF018056B4300EB8300A389B4
:101A50001D044FF0320306D503EBC000B0FBF2F0DB
:101A600000F0070005E003EB0010B0FBF2F000F01F
:101A70000F000843208105B030BD4FF416510160BE
:101A800000218180C18001810C22428181817047C7
:101A900010B5028A4FF2FF031A400B884C8823438B
:101AA0008C88C9880C4323431343038210BD002153
:101AB000018041808180C18070470029818902D0E6
:101AC00041F4005101E021F400518181704710B5CB
:101AD000C1F3421301F01F040121A140012B07D0E3
:101AE000022B07D01430002A026805D00A4304E014
:101AF0000C30F8E71030F6E78A43026010BD002A88
:101B0000828A01D00A4300E08A4382827047028AB7
:101B100022F00F020282028A0A43028270478289FF
:101B200022F40062828182890A43828170470029FF
:101B3000818902D041F0020101E021F0020181819E
:101B40007047028A22F020020282028A0A4302823D
:101B500070470029018A02D041F4804101E021F45C
:101B6000804101827047C1F30801818070478088FD
:101B7000C0F308007047818941F0010181817047FD
:101B8000028BD2B20283028B42EA012101837047A9
:101B9000028B02F47F420283028B0A430283704766
:101BA0000029818A02D041F0200101E021F02001CA
:101BB000818270470029818A02D041F0100101E042
:101BC00021F01001818270470029818A02D041F002
:101BD000080101E021F00801818270470029818914
:101BE00002D041F4004101E0C1F30E018181704750
:101BF0000029818A02D041F4006101E021F40061F2
:101C000081827047828A22F004028282828A0A4399
:101C1000828270470029818A02D041F0020101E0EE
:101C200021F00201818270470246002012880A4298
:101C300000D001207047C9430180704770B501F0A2
:101C40001F0501260024C1F3421306FA05F2012BF9
:101C50000FD0022B0FD0838A4FEA11210088134244
:101C600006FA01F600EA060001D000B10124204680
:101C700070BD8389F0E7038AEEE70A0A01219140EB
:101C8000C943018070470000003801400044004013
:101C900000480040004C0040005000405E494FF4B6
:101CA000005008617047C82003F043F8FBE70025A7
:101CB0005A4C01F0B4F92070322003F03AF8257044
:101CC000F7E7142003F035F801F022FB01F0FFFAEA
:101CD00001F067FD142003F02CF8F9E708B54E4F2A
:101CE000DFF83C814F4D4FF400560024002001F0F6
:101CF000AEFA012813D17E61009400230421D8F8A4
:101D00000020686903F0F2FD686940B103F03EFA13
:101D10000246009400230121686903F0E7FDC82012
:101D200003F007F8E2E71CB504F096F93D490420FA
:101D30000831C401CDE90001002322463AA13D4803
:101D400002F031FE37490320091DCDE900010023CF
:101D5000224639A13B4802F026FE324900200C31D0
:101D6000CDE900010346224637A13A4802F01BFEA6
:101D70002C4902201031CDE900010023224636A172
:101D8000384802F010FE38480090012300224FF43A
:101D90007A7136A003F082FE22494861086802F099
:101DA0002DFEBDE81C4004F071B91CB5FEF756FAD3
:101DB0004FF44070FEF7AEFA482000F00DF900F045
:101DC00079F800F093F801F05FF801F065FE02F099
:101DD000FCF800F080FA002000F099FB27494FF64C
:101DE000FF70002208800421084602F091F90D4995
:101DF000002388610120CDE90001420220A124488E
:101E000002F0D1FD012804D001F0F2F94FF0FF30CB
:101E10001CBD03F06EF9F9E70010014058000020E6
:101E20005C000020280000204D61696E5F546173E2
:101E30006B000000DD1C00084C43445F5461736B71
:101E400000000000C31C000852656D6F74655F548C
:101E500061736B00AF1C00084144435F5461736BB6
:101E600000000000A71C00089D1C00084F6E655371
:101E7000686F7454696D65720000000048000020AE
:101E80004170705461736B4372656174650000004A
:101E9000271D00087047FEE7FEE7FEE7FEE77047F4
:101EA00010B503F0A1FA012803D0BDE8104004F0FA
:101EB000FEB810BD38B501211020FEF75AFE4FF4D0
:101EC0000054ADF8004010208DF803000320064DAB
:101ED0008DF8020069462846FEF763FC2146284635
:101EE000FEF7C9FC38BD000000100140F8B5012123
:101EF0000C20FEF73EFE0124ADF800408DF80240B4
:101F000048208DF8030069463148FEF74AFCA002DC
:101F1000ADF800002F4E8DF8024028258DF80350B3
:101F200069463046FEF73DFC01210820FEF721FE00
:101F3000E002ADF800008DF802408DF803506946CC
:101F40003046FEF72EFCF8BD70B50C460546FEF790
:101F50007EFC38B9642002F0ECFE21462846FEF7EC
:101F600076FC08B1012070BD21462846FEF76FFCC3
:101F70000028F9D0002070BD70B50C460546FEF76C
:101F800066FC012808D1642002F0D3FE21462846D1
:101F9000FEF75DFC012800D0002070BD70B50C4636
:101FA0000546FEF754FC012808D1642002F0C1FE6A
:101FB00021462846FEF74BFC012801D0002070BDC9
:101FC00021462846FEF743FC0128F9D0012070BDC8
:101FD00000080140000C014010B504466FF00400F9
:101FE000FEF7DDF91849E00800EB40020870C2EB8B
:101FF000C0104FF6FF7202EAC000488010BD1249BF
:10200000498848434FF0E021486100238B6101205B
:1020100008610869C20701D0C003FAD50B618B6162
:1020200070470949097848434FF0E021486100238F
:102030008B61012008610869C20701D0C003FAD58D
:102040000B618B61704700004400002070B5FF4CAD
:1020500008210B03251D8A02060601D5236000E036
:102060002B602A6022604006000E491E11F0FF011D
:10207000F2D170BD10B500204FF4FA63F44A02E0CB
:10208000401C98420AD81488A407F9D5F04C241DA6
:102090002180002004E0401C984201D9002010BD9E
:1020A0001188C907F7D02088C0B210BD028822F07D
:1020B000380202800129018801D041F0200101800D
:1020C000018841F040010180704770B586B0012160
:1020D0000920FEF74EFD4FF42040ADF81400032414
:1020E000DA4E8DF8164018208DF81700103E05A91D
:1020F0003046FEF756FB4FF48045ADF814504820AB
:102100008DF817008DF8164005A93046FEF749FBFB
:1021100041F20200ADF814008DF8164010208DF841
:10212000170005A93046FEF73CFBA9103046FEF724
:10213000A4FB02213046FEF7A0FB01212846FEF752
:1021400021FD0020ADF80000ADF808004FF48271C9
:10215000ADF80400ADF80C00ADF80210ADF80600C3
:10216000ADF80E00BA4C69110720ADF80A10ADF8B1
:102170001000083C69462046FEF76EFD012120460E
:10218000FEF7E6FD06B070BDB04910B5091D4FF46D
:1021900080540C6002220A60C1B2AD480838FFF7D3
:1021A00069FFAA48046010BD30B5A84A4FF48054B6
:1021B000121D1460A54D02222A600146A448083869
:1021C000FFF758FF2C6030BDF0B504469F484FF430
:1021D0008055001D05609D4E022030609C4F210AF5
:1021E000083F3846FFF746FFE1B23846FFF742FFA7
:1021F0003560F0BD10B50C46FFF7C6FFE0B2BDE894
:102200001040D1E793480089BEE7F0B5DFF844C23B
:1022100007461C4615460E46BCF80A00FFF7B4FFF9
:10222000380AFFF7C1FFBF1CF8B2FFF7BDFF280A4D
:10223000FFF7BAFFAD1CE8B2FFF7B6FFBCF80C0021
:10224000FFF7A2FF300AFFF7AFFFF61CF0B2FFF76F
:10225000ABFF200AFFF7A8FFE41CE0B2FFF7A4FFE2
:10226000BDE8F040CEE70B460246CEE700B5FFF7EB
:10227000FAFF794800885DF804EBA5E708B501216D
:102280000820FEF776FC4FF20200ADF800000320B4
:102290008DF8020010208DF803006C486946103854
:1022A000FEF77FFA08BD10B56420FFF7A8FEBDE871
:1022B00010403220FFF7A3BE66482C210181002187
:1022C00081718021018041802A2141812B218181DE
:1022D000C82136208EE710B5FFF7F7FEFFF7E3FFC2
:1022E0001120FFF751FF7820FFF789FEB120FFF79B
:1022F0004BFF0120FFF758FF2C20FFF755FF2D2043
:10230000FFF752FFB220FFF73FFF0120FFF74CFF1E
:102310002C20FFF749FF2D20FFF746FFB320FFF7E2
:1023200033FF0120FFF740FF2C20FFF73DFF2D205A
:10233000FFF73AFF0120FFF737FF2C20FFF734FFAC
:102340002D20FFF731FFB420FFF71EFF0720FFF716
:102350002BFFC020FFF718FFA220FFF725FF022068
:10236000FFF722FF8420FFF71FFFC120FFF70CFFBC
:10237000C520FFF719FFC220FFF706FF0A20FFF76D
:1023800013FF0020FFF710FFC320FFF7FDFE8A2098
:10239000FFF70AFF2A20FFF707FFC420FFF7F4FE2C
:1023A0008A20FFF701FFEE20FFF7FEFEC520FFF7B2
:1023B000EBFE0E20FFF7F8FE3620FFF7E5FEC82003
:1023C000FFF7F2FEE020FFF7DFFE0F20FFF7ECFE45
:1023D0001A20FFF7E9FE0F20FFF7E6FE1820FFF7AF
:1023E000E3FE2F20FFF7E0FE2820FFF7DDFE202090
:1023F000FFF7DAFE2220FFF7D7FE1F20FFF7D4FEFB
:102400001B20FFF7D1FE2320FFF7CEFE3720FFF77A
:10241000CBFE0020FFF7C8FE0720FFF7C5FE022015
:10242000FFF7C2FE1020FFF7BFFEE120FFF7ACFE72
:102430000F20FFF7B9FE1B20FFF7B6FE0F20FFF7B6
:10244000B3FE1720FFF7B0FE332007E0100C014069
:1024500008380040E400002048000020FFF7A4FEF8
:102460002C20FFF7A1FE2920FFF79EFE2E20FFF76C
:102470009BFE3020FFF798FE3020FFF795FE3920B5
:10248000FFF792FE3F20FFF78FFE0020FFF78CFE44
:102490000720FFF789FE0320FFF786FE1020FFF7D5
:1024A00083FE2A20FFF770FE0020FFF77DFE00204C
:1024B000FFF77AFE0020FFF777FE7F20FFF774FE1C
:1024C0002B20FFF761FE0020FFF76EFE0020FFF7D4
:1024D0006BFE0020FFF768FE9F20FFF765FEF020EF
:1024E000FFF752FE0120FFF75FFEF620FFF74CFEDC
:1024F0000020FFF759FE3A20FFF746FE0520FFF7C0
:1025000053FE2920FFF740FEBDE81040D4E6F0B5A9
:102510000E4E074600217088401E83B23088401E50
:1025200082B20846FFF771FE00250BE0002404E0AC
:102530003846FFF749FE641CA4B27088A042F7D861
:102540006D1CADB23088A842F0D8F0BDE400002088
:1025500010B51446FFF787FE2046BDE81040FFF790
:1025600033BE2DE9F041141A641CA6B25C1A641C37
:102570005B1E521EA7B29BB292B2DDF81880FFF725
:1025800044FE00250AE0002404E04046FFF71CFE5C
:10259000641CA4B2B442F8D36D1CADB2BD42F2D3F8
:1025A000F94841880088491EBDE8F041401E8BB2C1
:1025B00082B200210846FFF728BE2DE9FE4F002613
:1025C000A2EB000882465F1A701E35468946B8F1B4
:1025D000000F02DD4FF0010102E003D14FF00001D6
:1025E000019102E0C8F100080190002F02DD4FF0D8
:1025F000010002E003D14FF00000009002E0C7F1BB
:10260000000700904046B84501DD044600E03C4626
:10261000601C4FF0000B029015E01FFA89F11FFAC1
:102620008AF0FFF723FE46443D44A64202DD0199AD
:10263000361B8A44A54202DD00992D1B89440BF10B
:1026400001001FFA80FB02998B45E6DDBDE8FE8F95
:102650002DE9F0411C4615460E4607460B46FFF78E
:10266000ACFF3A46234631461046FFF7A6FF234605
:102670002A4619463846FFF7A0FF2A462346314628
:10268000BDE8F041104698E738B5C04C2488009466
:10269000FFF767FF38BD2DE9F05F15461C46DDF8F2
:1026A00028B00E46074601EB040800EB050A1FFAA6
:1026B00088F11FFA8AF05A46FFF74AFF1FFA88F19D
:1026C000A7EB05081FFA88F05A46FFF741FFA6EB73
:1026D00004091FFA89F11FFA8AF05A46FFF738FFFA
:1026E0001FFA89F11FFA88F05A46FFF731FF06EB0F
:1026F000050907EB04081FFA89F11FFA88F05A460A
:10270000FFF726FF3C1B1FFA89F1A0B25A46FFF7DC
:102710001FFF751BA9B21FFA88F05A46FFF718FF72
:10272000A9B2A0B25A46BDE8F05F11E72DE9F84F13
:1027300089461E46904682460024714203220A982A
:1027400002EB4105C8B930E0274608E03B46224687
:1027500049465046CDF80080FFF79DFF7F1CB742E9
:10276000F4DD002D03DA05EB8405AD1D04E0A01BAC
:1027700005EB80050A35761E641CB442E4DDBDE835
:10278000F88F3346224649465046CDF80080FFF781
:1027900082FF002D03DA05EB8405AD1D04E0A01BCC
:1027A00005EB80050A35761E641CB442E9DDE6E7D8
:1027B0002DE9FF4F81B091460EAA834692E8310081
:1027C000203800F0FF0802989A4620446F49401EC6
:1027D00083B20BEB54000988401E009182B2584628
:1027E0000299FFF712FD4FF00006FDB146E00C2CF8
:1027F00005D0674800EB08100027855D11E06548AB
:1028000008EB480100EB8100F6E7E80702D009F089
:10281000FF0001E00AF0FF00FFF7C6FC6D087F1C17
:10282000FFB2B7EB540FF0D3761CF6B2A642DED35C
:1028300026E00C2C08D0564800EB08100025875DD8
:10284000029800EB060A14E0524808EB480100EB3E
:102850008100F3E74D49F807A1F8009006D00BEB93
:1028600005001FFA8AF180B2FFF700FD7F086D1C9A
:10287000EDB2B5EB540FEDD3761CF6B2A642D8D329
:1028800042490098088040494888401E83B2088821
:1028900005B0401EBDE8F04F82B200210846FFF7A8
:1028A000B4BC2DE9FF4F0446384883B08846008801
:1028B000DDF840B0CDE901104BE033490A88521EE3
:1028C000A2424FDB4988491E41454BDB3A282BD0B9
:1028D0002E282BD03038C0B281462F4900EB49005A
:1028E00001EB0010A24600270090C65D0025274995
:1028F00005980880300603D541462046FFF7B6FC10
:102900004FF6FF70641C00EA4606A4B2A4EB0A006E
:102910000C280DD06D1CEDB2082DE8D37F1CFFB242
:10292000302F0BD20098E0E70A20D5E70B20D3E741
:1029300008F1010054461FFA80F8EFE7B9F10A0FD9
:1029400001D2103400E00834DDF80480A4B20BF1A9
:10295000010B9BF80000A0F120015E29ADD90B49C5
:102960000298088007B0BDE8F08F2DE9FE4F1C46A5
:1029700016460F460546DFF81090DFF820A0DFF876
:102980000CB0DDF8308023E0E40000204800002097
:10299000B4710008406D0008A47700084A000020C8
:1029A000B9F80020521EAA4217DBB9F80210491EDE
:1029B000B94212DB8DE84101BAF80030BBF80020C3
:1029C00039462846FFF7F4FE05EB560085B2641C35
:1029D0002078A0F120015E29E2D937E603460120E4
:1029E00000E05843491EC9B2FBD270472DE9FF4FA2
:1029F00083B00027DDF840801D4681463C464FF0FD
:102A0000010A4FEA5806DFF844B42AE0281B401EAA
:102A1000C1B20A20FFF7E2FF0599B1FBF0F00A21ED
:102A2000B0FBF1F201FB120027B9691E8C4201DAFA
:102A300040B101273030C0B28DE8010506FB04909B
:102A400080B205E0202206FB04908DE8040580B2E8
:102A5000FF49BBF800300A880499FFF7A9FE641CFF
:102A6000E4B2AC42D2D37DE72DE9FF4F83B00546F7
:102A700082461F2089464FF000084FF0800B0190DE
:102A8000F449109A08EB081011F8103012789342AC
:102A90003CD101EB40000090417810984078814291
:102AA00034D109F10F0083B205F10F0082B249461B
:102AB0002846FFF7AAFB00260098002487191198E2
:102AC00090B1E34905980880B9782BFA04F00142E7
:102AD00003D049462846FFF7C9FB6D1CADB2A5EBF4
:102AE0000A00102827D009E0B9782BFA04F0014237
:102AF00001D0059800E00698FFF766FB641CE4B27D
:102B0000082CDCD3761CF6B2202ED5D308F10100B8
:102B100001991FFA80F88845B2D3CF494888401EF2
:102B200083B2088807B0401EBDE8F04F82B2002192
:102B30000846FFF76ABB09F1010055461FFA80F904
:102B4000E0E72DE9FF4F83B005468246092001905A
:102B50000020894680464FF0800B00EB800101EB9E
:102B60004810BE49109A11F81030127893423CD1A7
:102B700001EB40000090417810984078814234D1B8
:102B800009F1170083B205F1170082B249462846C1
:102B9000FFF73BFB0026009800248719119890B19D
:102BA000AB4905980880B9782BFA04F0014203D0AC
:102BB00049462846FFF75AFB6D1CADB2A5EB0A004B
:102BC000182827D009E0B9782BFA04F0014201D087
:102BD000059800E00698FFF7F7FA641CE4B2082CA9
:102BE000DCD3761CF6B2482ED5D308F1010080B2B2
:102BF000019980468842B0D397494888401E83B2E5
:102C0000088807B0401EBDE8F04F82B20021084698
:102C1000FFF7FBBA09F1010055461FFA80F9E0E71A
:102C20002DE9FF4F83B005468246012089464FF0CB
:102C300000084FF0800B01908949109A08EB88102A
:102C400011F81030127893423CD101EB4000009013
:102C5000417810984078814234D109F11F0083B245
:102C600005F11F0082B249462846FFF7CEFA00263A
:102C7000009800248719119890B17549059808802B
:102C8000B9782BFA04F0014203D049462846FFF7F1
:102C9000EDFA6D1CADB2A5EB0A00202827D009E0A3
:102CA000B9782BFA04F0014201D0059800E00698AB
:102CB000FFF78AFA641CE4B2082CDCD3761CF6B267
:102CC000802ED5D308F1010001991FFA80F88845BC
:102CD000B2D361494888401E83B2088807B0401EBD
:102CE000BDE8F04F82B200210846FFF78EBA09F125
:102CF000010055461FFA80F9E0E72DE9FF4F83B048
:102D00008846DDE91054064682464FF00009DFF898
:102D100048B1129F1DE0B9F1000F1ED0BBF80010A2
:102D2000091BB14218DBBBF80200011B414513DB54
:102D30004FF00009202C46D0CDE90057DDE90523EE
:102D4000182C4146304647D0FFF78EFE301986B228
:102D5000AD1C28780028DED104E6BBF80020A2EBE9
:102D60005402B242F8DBBBF802100A1B414642454E
:102D7000F2DB802802D94FF00109EAE70D2810D0D4
:102D80000C2C15D0102C13D010218DE88300DDE918
:102D9000052341463046FFF70BFD0836B6B26D1CE1
:102DA000D7E708EB04001FFA80F856466D1CF6E7DB
:102DB0008DE89100DDE905233046FFF7F9FC06EBCD
:102DC000540086B2EBE7CDE90057DDE90523414623
:102DD0003046FFF725FFB9E7FFF7B3FEB6E72DE969
:102DE000FE4F0546DDE90C47984691468A46204647
:102DF0000E9E03F0CDF9184980B240420988CDE912
:102E0000004701EBC00000EBD07005EB500080B232
:102E100043464A4651460296FFF76FFF16E470B5E7
:102E2000154601F1270293B200F1270292B2FFF793
:102E3000ECF900244FF4C86605EB440115F81400C2
:102E4000497840EA0120FFF7BFF90BE04A00002073
:102E500048000020E4790008E4000020027E000819
:102E60009C800008641CB442E6DB06484188008868
:102E7000491E401EBDE870408BB282B20021084658
:102E8000FFF7C3B9E4000020F0B589B001210820A4
:102E9000FDF76FFE01210420FDF774FE4FF400746E
:102EA000ADF81C4028208DF81F006C4D03268DF8CE
:102EB0001E6007A92846FDF774FC21462846FDF749
:102EC000DAFC42F21070ADF810004720ADF80C00AB
:102ED0000024634FADF81240ADF80E4003A9384608
:102EE000FEF768F80C20ADF800000125ADF804509D
:102EF000ADF80240ADF80640ADF8086069463846C6
:102F0000FEF710FA01213846FEF7FCFA1E208DF874
:102F100018008DF819508DF81A408DF81B5006A82E
:102F2000FDF7FDF9012211213846FEF700FB09B03B
:102F3000F0BD70B54A4D01212846FEF70CFD494C05
:102F4000A8B12078010612D520F0100121700807E1
:102F500002D141F040002070217801F00F000E28CE
:102F600002D2491C217002E001F070002070102193
:102F70002846FEF7F0FC90B33B48D0F8240158B146
:102F800002212846FEF73AFC00212846FEF7B7FC4E
:102F9000207840F010003BE02846FEF7CBFC608034
:102FA00000212846FEF72AFC2178C8062DD50A06FE
:102FB00062884FF4F9701ED5A2F22D13834202D815
:102FC0006068400009E0A2F279504FF4C77398425C
:102FD00006D86068400040F00100606015E018E02D
:102FE000A2F699029A4210D86078401C607001F0F5
:102FF000F000207009E0A2F58052693A824204D8BC
:1030000041F08000207000206070207820F01000D7
:1030100020702846BDE870401121FEF7A8BC30B5ED
:10302000104C00202378590616D561686FEA1145C7
:103030000A0EEDB295420AD14AB9C1F30722C9433B
:10304000C9B2914203D1100001D0190604D423F073
:10305000400121700021617030BD0000000C014072
:10306000000800404C0000200080214230B587B0AD
:1030700001210420FDF77DFD01218803FDF779FD85
:103080004FF40070ADF8100018208DF813000320E5
:10309000554C8DF8120004A92046FDF782FB21153E
:1030A000ADF8101004218DF8131004A92046FDF787
:1030B00078FB00244FF4E1300090ADF808400C207C
:1030C0004A4DADF80440ADF80A00ADF80640ADF841
:1030D0000C4069462846FEF77DFC4FF44070FDF732
:1030E00019F925208DF8140001218DF815108DF89F
:1030F00016408DF8171005A8FDF711F9012240F2CE
:1031000025512846FEF7E3FC01212846FEF7D5FCB1
:1031100007B030BD10B50446FEF725FD80212046DE
:10312000FEF782FD0028F9D010BD2DE9F0411546CB
:103130000E460746002405E0315D3846FFF7EAFFFA
:10314000641CE4B2AC42F7D340213846FEF76CFD74
:103150000028F9D0BDE8F08170B50D460646002480
:103160003046295DFFF7D6FF641C285D0028F7D1A3
:1031700040213046FEF758FD0028F9D070BD70B5EB
:103180000446080ACDB201462046FEF7ECFC802139
:103190002046FEF749FD0028F9D029462046FEF7D3
:1031A000E2FC80212046FEF73FFD0028F9D070BDEB
:1031B00070B50E4D0446C1B22846FEF7D4FC8021FE
:1031C0002846FEF731FD0028F9D0204670BD10B525
:1031D000064C20212046FEF727FD0028F9D0204686
:1031E000BDE81040FEF7C3BC0008014000380140B4
:1031F000BFF3408FFE480168FE4A01F4E0611143CD
:103200000160BFF3408FFEE770B5FB4C207861781A
:10321000401A03F096F90546A07803F09BF9294679
:1032200002F0BDFF03F0D2F94FF06632F34B03F02A
:10323000A7F805460E46206903F0C8F92A4633462A
:1032400003F0D8F901D2012070BD002070BD70B527
:10325000EB4A4FF4006420B121461046FEF78CFE85
:103260000FE04FF4806115461046FEF785FE0128F9
:103270000AD021462846FEF77FFE012804D0FFF73A
:10328000C3FF012800D0002070BD08B5A02000F0C9
:1032900097FC012819D0D8484FF47A72816891FBC5
:1032A000F2F18DF8001001788DF8011041788DF859
:1032B000021080788DF8030004220021684600F097
:1032C000D5FC002800D0012008BD002008BD08B5AD
:1032D000A02000F075FC012818D0042200216846C7
:1032E00000F08FFC002810D09DF800104FF47A7089
:1032F0004143C14881609DF8011001709DF80210A2
:1033000041709DF803108170012008BD002008BDA8
:103310002DE9FE4F0020FFF7FAF84FF0000B1024C4
:10332000B8A18DE812084FF6E0731F220521202076
:10333000FFF7E3FC1820B6A1CDE9001001264FF6F7
:10334000E0734FF4784202961E211020FFF7D5FC5F
:10335000B2A08DE851004FF6E0734FF4784232216D
:103360000520FFF7CAFCA44D6878074603F008F96A
:10337000814628788A46C01B03F0F1F80746884644
:10338000286903F023F94FF066329C4B03F06AF88A
:103390003A46434602F0F4FF4A46534602F049FFDC
:1033A00003F0FBF8C2B2EA709FA1A04803F06EFAE6
:1033B0009E484FF6E0738DE851004FF47842322179
:1033C0004520FFF79AFC9AA18DE812084FF6E073AA
:1033D0001F2264213020FFF790FCBDE8FE8FFEB570
:1033E0000020FFF794F8102593A0CDE900050124F3
:1033F0004FF6E0764FF4784733463A46052102947B
:103400000F20FFF77AFC8FA0CDE9000533463A463E
:10341000192102940F20FFF770FC8DA0CDE9000563
:1034200033463A462D2102940F20FFF766FCFEBD7D
:10343000FEB50020FFF76BF8102489A1CDE9001438
:1034400000204FF6E076029033461F22052120200F
:10345000FFF753FC012585A08DE831004FF4784734
:1034600033463A4619213520FFF747FC80A08DE806
:10347000310033463A4632211020FFF73EFC6B48BC
:1034800033468DE831003A4632213520FFF735FCCE
:103490007AA08DE8310033463A464B213520FFF7BC
:1034A0002CFC77A08DE8310033463A4664210F208A
:1034B000FFF723FCFEBDFEB50020FFF728F810251E
:1034C00072A0CDE9000501244FF6E0764FF478476D
:1034D00033463A46192102940F20FFF70EFC6FA0E5
:1034E000CDE9000533463A46322102940F20FFF71A
:1034F00004FC6EA0CDE9000533463A464B21029408
:103500000F20FFF7FAFBFEBDFEB50020FEF7FFFF20
:1035100010246AA1CDE9001400204FF6E076029055
:1035200033461F2205212020FFF7E7FB01254FA08E
:103530008DE831004FF4784733463A46192145204B
:10354000FFF7DBFB60A08DE8310033463A463221BD
:103550000520FFF7D2FB354833468DE831003A4667
:1035600032214520FFF7C9FB44A08DE831003346E6
:103570003A464B214520FFF7C0FB41A08DE83100C2
:1035800033463A4664210520FFF7B7FBFEBDFEB582
:103590000020FEF7BCFF10244EA1CDE9001400204E
:1035A0004FF6E076029033461F2205212020FFF7D8
:1035B000A4FB01252DA08DE831004FF47847334658
:1035C0003A4619214520FFF798FB45A08DE83100C8
:1035D00033463A4632210520FFF78FFB1348334626
:1035E0008DE831003A4632214520FFF786FB7DE029
:1035F0000CED00E00400FA055400002066660A4065
:10360000000C0140C9BDB6ABB4ABD5FD0000000055
:10361000C5E7CEEDCFB5CDB300000000B5B1C7B062
:103620003A2020202000000025640000F200002045
:10363000C9E8B6A800000000312ED1D3CAB1C9E84C
:10364000B6A80000322EB6A8CAB1C9E8B6A80000D4
:10365000332EC4A3C4E2C1BFC9E8B6A8000000006D
:10366000D1D3CAB1C9E8B6A8000000002B00000001
:10367000D1D3CAB13A20202020C3EB002D00000096
:10368000C8B7C8CFB2A2B7B5BBD80000312ED7EEAD
:10369000B4F3D6B5C9E8B6A800000000322ED7EEC4
:1036A000D0A1D6B5C9E8B6A800000000332EC9E8FD
:1036B000B6A8D6B5C9E8B6A800000000D7EEB4F3A6
:1036C000D6B5C9E8B6A80000D7EEB4F3D6B53A200F
:1036D00020202000D7EED0A1D6B5C9E8B6A80000BA
:1036E000D7EED0A1D6B53A2020202000AFF274004A
:1036F0008DE8310033463A464B214520FFF7FDFA6D
:10370000AFF284008DE8310033463A46642105204B
:10371000FFF7F3FAFEBDFEB50020FEF7F8FE102419
:10372000D5A1CDE9001400204FF6E0760290334693
:103730001F2205212020FFF7E0FA0125AFF2D40077
:103740008DE831004FF4784733463A461921452039
:10375000FFF7D3FACBA08DE8310033463A46322149
:103760000520FFF7CAFACA4833468DE831003A46C9
:1037700032214520FFF7C1FAAFF200108DE8310089
:1037800033463A464B214520FFF7B7FAAFF2101007
:103790008DE8310033463A4664210520FFF7ADFA43
:1037A000FEBD70B5642001F0C4FABA4D2879B02886
:1037B00077D1FFF714FE642001F0BBFA287938288E
:1037C00002D0A22803D028E0BDE87040A0E5A86898
:1037D0004FF47A7190FBF1F2AFF2B411AC48EA60A9
:1037E00003F054F8FFF724FE142001F0A2FA287920
:1037F000382802D0182816D02BE0E8684FF47A71E8
:103800004843A860FFF741FDFFF7E9FD02E01420FF
:1038100001F08FFA28793828F9D0C0B2E228CAD14D
:10382000FFF749FE31E0E868401CE860632801DDED
:103830006320E8600246AFF21021954803F026F8B5
:10384000FFF7F6FD02E0142001F073FA287918283A
:10385000F9D0C0B24A28C7D1E868401EE86001D557
:103860000020E8600246AFF24021894803F00EF8DC
:10387000FFF7DEFD02E0142001F05BFA28794A2808
:10388000B2D1F8E7142001F054FA2879E228F9D0EF
:10389000142001F04EFA2879382803D0A2280BD042
:1038A00028E0E7E0FFF79BFD02E0142001F041FA79
:1038B00028793828B3D1F8E72C782246AFF298213E
:1038C000734802F0E3FFFFF71FFE142001F031FA06
:1038D0002879382802D0182810D023E02C70FFF760
:1038E000D4FCFFF7E8FD02E0142001F022FA287969
:1038F0003828F9D0C0B2622829D046E0641CE4B26E
:10390000642C00D964242246AFF2E421604802F01E
:10391000BDFFFFF7F9FD02E0142001F00AFA287953
:103920001828F9D0C0B24A28CFD1641EE4B222468A
:10393000AFF20C31564802F0A9FFFFF7E5FD02E0B7
:10394000142001F0F6F928794A28BED1F8E76C78FE
:103950002246AFF22C314E4802F098FFFFF717FED7
:10396000142001F0E6F92879382802D0182822D04E
:1039700035E06C70FFF789FCFFF79DFD02E0142035
:1039800001F0D7F928793828F9D0C0B2E2287FF4BD
:103990007FAFAC782246AFF270313D4802F076FF3F
:1039A000FFF7B9FE142001F0C4F9287938282BD08C
:1039B000182836D049E0641CE4B2642C00D9642491
:1039C0002246AFF29C31324802F060FFFFF7DFFD84
:1039D00002E0142001F0ADF928791828F9D0C0B21E
:1039E0004A28BDD1641EE4B22246AFF2C431284851
:1039F00002F04CFFFFF7CBFD02E0142001F099F933
:103A000028794A28ACD1F8E7AC70FFF73EFCFFF705
:103A100052FD02E0142001F08CF928793828B6D143
:103A2000F8E7641CE4B2642C00D964242246AFF2A7
:103A30000841174802F02AFFFFF766FD02E0142054
:103A400001F077F928791828F9D0C0B24A28A9D10D
:103A5000641EE4B22246AFF230410D4802F016FF78
:103A6000FFF759FE02E0142001F063F928794A2893
:103A700098D1F8E770BD0000C9E8B6A8D6B5C9E886
:103A8000B6A80000C9E8B6A8D6B53A202020200084
:103A9000F20000205400002038B501210820FDF775
:103AA00068F80124ADF8004000258DF80350694600
:103AB0003E48FCF776FE00F036F812208DF8000044
:103AC00004208DF801008DF802508DF803406846FF
:103AD000FCF725FC38BD70B5354D4FF40874214610
:103AE0002846FCF7E9FD012817D12846FCF74AFDD6
:103AF000014630480180008802F02CFD6FF00B0178
:103B000002F08BFB02F062FD4FF066322A4B02F0AE
:103B100037FC02F087FD2949086021462846BDE8A8
:103B20007040FCF7D7BD10B5012186B04802FDF703
:103B300020F800224FF460200121CDE902028DF827
:103B400004201B4C8DF805108DF81010009269466A
:103B50002046FCF753FC4FF44040FCF79EFF052342
:103B6000012208212046FCF7C9FC01224FF408710C
:103B70002046FCF77FFC01212046FCF767FC20462D
:103B8000FCF781FC2046FCF783FC0028FAD1204694
:103B9000FCF785FC2046FCF787FC0028FAD10121C0
:103BA0002046FCF788FC06B010BD0000000C014068
:103BB000002401406800002066660A40640000207E
:103BC00010B5044600F05EF9204600F079F900F0E7
:103BD000C0F9044600F068F900F0E7F9204610BD8E
:103BE00070B500244FF4803505E02046641CA842DF
:103BF00001D3012070BDA020FFF7E2FF0028F4D11F
:103C000070BD2DE9F04115460C46074600F03AF923
:103C1000A02000F055F900F09CF968B9E0B200F07E
:103C20004FF900F096F938B900F02CF9A12000F016
:103C300047F900F08EF920B100F036F90020BDE818
:103C4000F08100246E1E0BE000F062F93855B4429A
:103C500002D000F097F901E000F0A7F9641CA4B2CB
:103C6000AC42F1D300F020F90120E8E72DE9F0475C
:103C700090460E46814600254FF47A7724E00DB138
:103C8000700716D100F010F9002400F0FBF8A02016
:103C900000F016F900F05DF918B1641CA4B2BC4242
:103CA000F3D3BC421BD0F0B200F00AF900F051F996
:103CB000A8B919F8050000F003F900F04AF970B945
:103CC000761C6D1CB6B2ADB24545D8D300F0ECF809
:103CD000FFF786FF012802D00120BDE8F08700F041
:103CE000E3F80020F9E708B500206A46FF211154E7
:103CF000401C80B20428FAD3042200216846FFF752
:103D0000B5FF18B126A002F0B1FD08BD29A0FAE761
:103D10007CB5A020FFF754FF012828D000206D4675
:103D20002854401C80B20428FAD3042200212846DB
:103D3000FFF79CFF00281CD023A002F097FD04226F
:103D4000002101A8FFF75DFF002814D023A002F096
:103D50008DFD002401AE285D315D81420DD026A08D
:103D600002F084FD26A002F081FD00207CBD2DA084
:103D7000F9E732A0F7E736A0F5E73AA002F076FDC2
:103D8000E043000702D10AA002F070FD641CA4B257
:103D9000042CE0D335A002F069FD01207CBD0000B9
:103DA000B2C1B3FD656570726F6DB3C9B9A6A3A149
:103DB0000D0A0000B2C1B3FD656570726F6DB3F698
:103DC000B4EDA3A10D0A0000D0B4656570726F6DEB
:103DD000B3C9B9A6A3A10D0A00000000B6C165656C
:103DE00070726F6DB3C9B9A6A3ACCAFDBEDDC8E7DA
:103DF000CFC2A3BA0D0A0000307825303258200017
:103E0000B4EDCEF33A454550524F4DB6C1B3F6D35B
:103E1000EBD0B4C8EBB5C4CAFDBEDDB2BBD2BBD6D5
:103E2000C2000000C3BBD3D0BCECB2E2B5BDB4AE9F
:103E3000D0D0454550524F4D210D0A00D0B4656594
:103E400070726F6DB3F6B4EDA3A10D0A000000000F
:103E5000B6C1656570726F6DB3F6B4EDA3A10D0ABE
:103E600000000000202530325800000065657072A7
:103E70006F6DB6C1D0B4B2E2CAD4B3C9B9A60D0A47
:103E80000000000070B55F48082606600425056044
:103E900000F0B1F85B4C241D266000F0ACF8256002
:103EA000BDE8704000F0A7B870B556480824001D62
:103EB0000460544D0420286000F09DF82C6070BD13
:103EC0002DE9F047DFF83C9100244E4E054609F1FC
:103ED000040904274FF008082806404601D5306041
:103EE00001E0C9F8000000F086F8376000F083F8C0
:103EF000C9F80070072C01D1C6F800806806050ECD
:103F000000F079F8641CE4B2082CE5D3BDE8F08732
:103F10002DE9F04700243B4FDFF8E8802546A8F163
:103F20000808042607F104096006040E3E6000F04C
:103F300062F8D8F80000000701D5641CE4B2C9F8A3
:103F4000006000F058F86D1CEDB2082DECD320464F
:103F5000DCE770B52B4C0820206000F04CF80425FD
:103F6000256000F048F8274808380068000701D5A8
:103F7000012400E000242348001D056000F03BF808
:103F8000204670BD2DE9F0411E4E0825361D3560D6
:103F900000F031F8371F04243C6000F02CF8346046
:103FA00000F029F83D60BDE8F08170B5154D08209E
:103FB000286000F020F804242C6000F01CF8281D74
:103FC0000460BDE8704000F016B808B50121042077
:103FD000FCF7CFFD0C20ADF8000003208DF80200A7
:103FE00014208DF80300074869461038FCF7D9FB08
:103FF000FFF75AFF08BD0020401CC0B20A28FBD3BF
:10400000704700001008014000F108014FF0FF3236
:10401000C0E90112C1600161002101607047002107
:104020000161704742684A6093688B609368596089
:10403000916008610168491C0160704730B50C68E7
:10404000621C02D000F1080202E0026904E01A4694
:1040500053681D68A542FAD953684B6099608A601D
:10406000516008610168491C016030BDD0E901322E
:1040700001699A60D0E901235A604A68824201D1FD
:1040800082684A60002202610868401E086070472A
:1040900070B50D46040005D140F21B12F7A1FEA039
:1040A00002F0E4FB01F0D8FFD4E90F20216802FB05
:1040B000001161600021A1632168A1600A46D4E972
:1040C0000F01401E00FB0121E16021464FF0FF304F
:1040D00001F8440F487004F110004DB1FFF794FF50
:1040E00004F12400FFF790FF01F0D0FF012070BD24
:1040F00021690029F8D001F0C1F80028F4D0EA497C
:104100004FF080500860BFF34F8FBFF36F8FEBE726
:1041100070B50E46050005D14FF4C472D7A1DEA0DC
:1041200002F0A4FB96B105FB06F0483001F03EFE1C
:10413000040009D004F1480120464EB10160C0E9F5
:104140000F560121FFF7A4FF204670BD0020ECE7C9
:104150000060F4E72DE9F041044601F07DFF94F999
:10416000455004F1240609E0606A48B1304601F088
:1041700085F808B101F034F96D1E6DB2002DF3DC45
:104180004FF0FF3684F8456001F080FF01F064FFD6
:1041900094F9445004F1100709E0206948B1384609
:1041A00001F06CF808B101F01BF96D1E6DB2002D25
:1041B000F3DC84F84460BDE8F04101F067BF2DE90D
:1041C000F041856B164604460027026CFAB17EB1B9
:1041D000E06801F0CBFFE168206C091AE160226819
:1041E000914202D26168081AE060022E0DD00EE002
:1041F000A06801F0BBFF216CA0680844A060616862
:10420000884204D32068A06001E005B16D1E6D1CDA
:10421000A5633846BDE8F0812DE9FF4F83B01F4606
:104220008B4604004FF0000605D140F2D92293A13D
:1042300099A002F01BFBBBF1000F07D1206C28B145
:1042400040F2DA228DA194A002F010FB022F08D1D7
:10425000E06B012805D040F2DB2288A18EA002F09D
:1042600005FB01F0C1F838B9059828B140F2DE220B
:1042700082A189A002F0FAFA4FF0000A4FF08058AC
:10428000DFF8249201F0E8FEA06BE16B884205D3D1
:10429000022F03D00598C8B1DEB11EE03A46594658
:1042A0002046FFF78CFF616A19B104F1240000F089
:1042B000E5FF28B1C9F80080BFF34F8FBFF36F8FC0
:1042C00001F0E4FE012007B0BDE8F08F01F0DEFE52
:1042D00021E0684601F040F8012601F0D7FE00F029
:1042E000C5FC01F0B9FE94F94400401C01D184F8EA
:1042F00044A094F94500401C01D184F845A001F088
:10430000C5FE05A9684601F038F830B12046FFF730
:1043100021FF00F01DFC0020D5E701F09DFEA06B01
:10432000E16B884201D1012500E0002501F0AEFEDD
:1043300095B104F11000059900F047FF2046FFF702
:1043400009FF00F005FC00289CD1C9F80080BFF3EC
:104350004F8FBFF36F8F95E72046FFF7FBFE00F00E
:10436000F7FB8FE72DE9F0471F469046894604008A
:1043700005D140F29F3241A147A002F077FAB9F18E
:10438000000F07D1206C28B14FF468723BA142A006
:1043900002F06CFA022F08D1E06B012805D040F240
:1043A000A13236A13CA002F061FA01F094FE502047
:1043B000EFF3118680F31188BFF34F8FBFF36F8F38
:1043C000A06BE16B884206D3022F04D0002086F355
:1043D0001188BDE8F08794F945503A464946204691
:1043E000FFF7EDFE681C04D06D1C84F845500120D9
:1043F000EDE7606A0028FAD004F1240000F03EFFE7
:104400000028F4D0B8F1000FF1D00121C8F8001055
:10441000EDE770B50E46040005D140F23C4217A10D
:104420001DA002F023FA206C28B14FF4886213A17A
:1044300019A002F01BFA206838B9606828B140F270
:1044400045420EA114A002F011FA01F044FE5020E2
:10445000EFF3118580F31188BFF34F8FBFF36F8F98
:10446000A16BE06B884231D994F94500491CA163E6
:10447000411C1DD0401C84F8450017E02E2E5C2EF8
:104480002E5C4672656552544F535C7372635C7167
:10449000756575652E6300004572726F723A2573FB
:1044A0002C25640D0A00000004ED00E001200EE060
:1044B000606A0028E1D004F1240000F0DFFE00284B
:1044C000DBD0002ED9D001203060D6E7002085F364
:1044D000118870BD30B4026C0B46002A0BD0C16845
:1044E0001144C1604468A14201D30168C16030BC7D
:1044F000184601F03BBE30BC70472DE9FF4F83B03A
:104500009B468A4604004FF0000607D140F2DC4289
:10451000AFF29801AFF2800002F0A8F9BAF1000FF3
:1045200009D1206C38B140F2DD42AFF2B001AFF2F8
:10453000980002F09BF900F057FF48B9059838B190
:104540004FF49C62AFF2CC01AFF2B40002F08EF9EE
:104550004FF000094FF08057DFF8848301F07CFDB5
:10456000A56B0DB351462046E668FFF7B3FFBBF1DC
:10457000000F11D0E660606A50B104F1240000F031
:104580007DFE28B1C8F80070BFF34F8FBFF36F8F67
:1045900001F07CFD012096E66D1EA56320690028D0
:1045A000F6D004F11000EAE7059808B11EB106E064
:1045B00001F06CFD27E0684600F0CEFE012601F018
:1045C00065FD00F053FB01F047FD94F94400401CE9
:1045D00001D184F8449094F94500401C01D184F83D
:1045E000459001F053FD05A9684600F0C6FE00287D
:1045F00020460AD0FFF7AEFD00F0AAFA204600F0F0
:1046000062F90028AAD000205DE600F05CF990B1C4
:1046100004F12400059900F0D8FD2046FFF79AFD2B
:1046200000F096FA002899D1C8F80070BFF34F8FB8
:10463000BFF36F8F92E72046FFF78CFD00F088FAFA
:104640008CE72DE9F04790468946040007D14FF4E6
:10465000B462AFF2D811AFF2C01002F007F9B9F1AD
:10466000000F09D1206C38B140F2A152AFF2F41121
:10467000AFF2DC1002F0FAF801F02DFD5020EFF35C
:10468000118780F31188BFF34F8FBFF36F8FA66B35
:10469000F6B194F9445049462046FFF71BFF761EB9
:1046A000A663681C04D06D1C84F84450012010E0FF
:1046B00020690028FAD004F1100000F0DFFD002886
:1046C000F4D0B8F1000FF1D00121C8F80010EDE7E7
:1046D000002087F311887CE62DE9F0410E460400A6
:1046E00007D140F2FC52AFF26C21AFF2542002F03D
:1046F000BDF84EB9206C48B140F2FD52AFF28421B2
:10470000AFF26C2002F0B2F8206C38B940F2FE52E1
:10471000AFF29821AFF2802002F0A8F801F0DBFCA4
:104720005020EFF3118580F31188BFF34F8FBFF353
:104730006F8FA06B30B131462046E768FFF7CAFEA5
:104740000120E76085F3118864E510B5040007D106
:1047500040F22F62AFF2DC21AFF2C42002F086F803
:1047600001F07AFCA46B01F091FC204610BD10B55D
:10477000040007D140F24162AFF20031AFF2E8200D
:1047800002F074F801F068FCD4E90E10441A01F04C
:104790007DFC204610BD10B5040007D140F25162E7
:1047A000AFF22831AFF2103002F060F8A06B10BD0C
:1047B0004C4A002102EBC1035B68834206D1002012
:1047C00042F8310002EBC10148607047491C0A29D8
:1047D000F0D3704710B5040007D140F25D62AFF22C
:1047E0006431AFF24C3002F041F82046FFF7E0FFB1
:1047F0002046BDE8104001F044BB10B5040007D1CD
:1048000040F29372AFF28C31AFF2743002F02EF8B6
:10481000A06B08B1002010BD012010BD10B5040030
:1048200007D140F2BA72AFF2AC31AFF2943002F07D
:104830001DF8A06BE16B884201D1012010BD002062
:1048400010BD10B5274B002253F832401CB1521C4A
:104850000A2AF9D310BD43F8321003EBC2014860B5
:1048600010BD10B500241F4A214602EBC1035B684E
:10487000834202D152F8314002E0491C0A29F4D3A4
:10488000204610BD70B515460E46044601F0E4FB07
:1048900094F944100020491C01D184F8440094F993
:1048A0004510491C01D184F8450001F0EFFBA06BD5
:1048B00028B92A46314604F1240000F0C4FC204601
:1048C000BDE8704046E410B5044601F0C5FBA06B9E
:1048D00020B1002401F0DAFB204610BD0124F9E7E5
:1048E00004ED00E0080100202DE9F041054601F04B
:1048F000B3FBFE4EB068401CB0603068FC4F10B196
:10490000706930B32BE03560B068012827D10024EE
:1049100004EB840007EB8000FFF776FB641C202C7F
:10492000F6D3F448FFF770FBF2481430FFF76CFB46
:10493000F0482830FFF768FBEE483C30FFF764FB97
:10494000EC485030FFF760FBEA4870631430B06306
:1049500005E03068E96AC06A884200D83560706A4C
:104960000121401C7062E86A326981401143316163
:1049700000EB800007EB8000291DFFF753FB01F0DF
:1049800085FB706900280CD03068E96AC06A8842EB
:1049900007D2D9494FF080500860BFF34F8FBFF363
:1049A0006F8FBDE8F0812DE9FF5F8346DDE90E875B
:1049B000994616468A46900001F0F8F905001AD08B
:1049C0004C2001F0F3F9040012D025630021CDE959
:1049D0000241CDE900874B4632465146584600F029
:1049E000CCFE2046FFF780FF012004B0BDE8F09F19
:1049F000284601F046FA4FF0FF30F6E770B504465E
:104A000001F02AFBB94D04B92C68201DFFF72EFBDD
:104A100058B9E06AB64A00EB800152F8211021B97A
:104A200001218140286988432861A06A18B104F1F6
:104A30001800FFF71BFB686A401C68622868844204
:104A400008D1AC48211D3C30FFF7ECFA6868401CE7
:104A5000686007E0A868401EA860204600F0DEFEFF
:104A600000F0CFFE01F012FB6869002812D0286820
:104A700084420FD1286B28B140F265429FA1A6A0C5
:104A800001F0F4FE9C494FF080500860BFF34F8F57
:104A9000BFF36F8F70BD2DE9F041944F0026386B46
:104AA00038B1B869401CB861F86900B101263046D8
:104AB00077E7FD686D1CFD6011D1786B006828B147
:104AC00040F6D9128DA194A001F0D0FE786BB96B9D
:104AD0007963B863386A401C386200F092FEB86AA5
:104AE000DFF80C82854209D3786B006880B1786B5F
:104AF000C068C468606885420DD2B8623868C06A10
:104B000000EB800158F821000128CDD90126CBE720
:104B10004FF0FF30F1E7201DFFF7A8FAA06A18B1A7
:104B200004F11800FFF7A2FAE06A01213A69814016
:104B30001143396100EB800108EB8100211DFFF773
:104B400071FAE06A3968C96A8842CDD30126CBE799
:104B50002DE9F047654D00242746286B28B94FF40E
:104B6000FD6266A16CA001F081FE01F075FA286B70
:104B7000401E2863286BE0BBA8685E4928310126E7
:104B8000B8B3DFF86C918846D8F80010E9B1D8F8CE
:104B90000C00C46804F11800FFF768FA201DFFF745
:104BA00065FAE06A2A6906FA00F11143296100EB0F
:104BB000800109EB8100211DFFF734FAE06A2968C2
:104BC000C96A8842E0D3EE61DEE70CB100F019FE5D
:104BD000AC693CB1FFF75FFF00B1EE61641EF9D133
:104BE0000020A861E86920B143490127380708601F
:104BF00000E003E0BFF34F8FBFF36F8F01F046FA81
:104C00003846BDE8F0872DE9F041384E0F4604469E
:104C1000F5683068001DFFF729FA38B9306890F858
:104C20002C1001208840316981433161601C08D11A
:104C30003FB13168BDE8F0412E485030091DFFF703
:104C4000F1B930682C44AC424460316805D2B06B95
:104C5000BDE8F041091DFFF7F1B9706B091DFFF7C1
:104C6000EDF9B06A844200D2B4629AE61F48016B43
:104C7000491C016370472DE9F0410E4605004FF0D5
:104C8000000405D140F279421CA123A001F0EEFD01
:104C90002EB940F27A4219A11FA001F0E7FD134F8F
:104CA000386B28B140F27B4214A11BA001F0DEFD5D
:104CB000FFF7DCFFFA6828688119904202D9884220
:104CC00002D804E0884201D8914200D90124296029
:104CD0001CB1881A0021FFF796FFFFF739FF002863
:104CE00026D105494FF0805008601DE06C0000207F
:104CF00058010020D803002004ED00E02E2E5C2E89
:104D00002E5C4672656552544F535C7372635C74DB
:104D100061736B732E6300004572726F723A257374
:104D20002C25640D0A000000BFF34F8FBFF36F8F77
:104D300037E610B5040014D0FE49096B39B140F2D2
:104D4000CF42AFF24801AFF2300001F08FFDFFF724
:104D50008DFF00212046FFF756FFFFF7F9FE0028E0
:104D600007D1F5494FF080500860BFF34F8FBFF374
:104D70006F8F10BD70B5050007D140F2FB42AFF256
:104D80008401AFF26C0001F071FDEA4E306885429B
:104D900001D1002070BD01F05FF96C6901F076F976
:104DA000706B844202D0B06B844201D1022070BD8E
:104DB000E248844204D1A86A0028F7D1032070BDDC
:104DC000DE481438844202D00CB1012070BD0420AA
:104DD00070BD10B5044601F03FF90CB9D548046820
:104DE000E46A01F053F9204610BD10B5044601F005
:104DF00072F95020EFF3118180F31188BFF34F8FC8
:104E0000BFF36F8F0CB9CB480468E06A81F3118857
:104E100010BD2DE9F04100260D460446202908D397
:104E20004FF4B062AFF22C11AFF2141001F01EFD7E
:104E30001F2501F011F9BF4F04B93C68E06AA84290
:104E40003BD03968854206D98C4207D03968C96A97
:104E5000A94202D902E08C4200D101268046E562D7
:104E6000A069002802DBC5F12000A061B44D08EB69
:104E70008800616905EB8000814215D1201DFFF794
:104E8000F5F8012120B93A6901FA08F082433A6144
:104E9000E06A3A6981401143396100EB800005EB1B
:104EA0008000211DFFF7BEF83EB1A3494FF08050AE
:104EB0000860BFF34F8FBFF36F8FBDE8F04101F083
:104EC000E5B870B59B4D286B10B10120E86170BD4D
:104ED0000020E86128699A4EB0FA80F0C0F11F0006
:104EE00000EB800456F8240038B940F6F622AFF201
:104EF000F411AFF2DC1001F0B9FC06EB840000F114
:104F00000802416849684160914201D149684160A5
:104F1000C868286070BD70B5044601F09DF8854DE5
:104F200004B92C68201DFFF7A1F858B9E06A844A3B
:104F300000EB800152F8211021B90121814028693C
:104F400088432861A06A18B104F11800FFF78EF8B1
:104F5000211D7A48FFF766F801F098F8686928B1D2
:104F600001F07AF800F04DFC01F090F828688442D6
:104F700013D1686990B1286B38B140F25762AFF233
:104F80008421AFF26C2001F071FC6B494FF080502E
:104F90000860BFF34F8FBFF36F8F70BD6748A9687C
:104FA0000068884202D10020286070BDBDE87040D2
:104FB00087E770B50025040007D140F28162AFF2A7
:104FC000C421AFF2AC2001F051FC5C496069884219
:104FD00005D1A06A2839884201D000B901252846A8
:104FE00070BD70B504002BD0524D2868844231D07A
:104FF00001F032F82046FFF7DCFFE8B1201DFFF793
:1050000035F8E06A01212A698140114329614C4940
:1050100000EB800001EB8000211DFFF703F8E06A40
:105020002968C96A884207D343494FF08050086015
:10503000BFF34F8FBFF36F8FBDE8704001F026B80C
:1050400040F2AB62AFF24C31AFF23430BDE87040A9
:1050500001F00CBC70BD2DE9F0410026040007D121
:1050600040F2E262AFF26C31AFF2543001F0FEFB7D
:1050700001F031F85020EFF3118580F31188BFF370
:105080004F8FBFF36F8F2046FFF793FFF0B1294F8B
:10509000386B20B1294804F11801283814E0E06A7F
:1050A0003968C96A884200D30126201DFEF7DEFF59
:1050B000E06A01213A69814011433961204900EBDE
:1050C000800001EB8000211DFEF7ACFF85F3118805
:1050D000304666E41A4E4FF08054174D00F0A8FB9E
:1050E00030680128FAD92C60BFF34F8FBFF36F8F60
:1050F000F4E71CB50F4800242C30CDE900402346CE
:10510000802210A11148FFF74EFC012803D100F0C6
:10511000A8FC01280CD0401C2BD140F28472AFF2C5
:105120002441AFF20C4002B0BDE8104001F09EBB3C
:1051300050200DE06C00002004ED00E02804002069
:105140005801002049444C4500000000D55000089B
:1051500080F31188BFF34F8FBFF36F8FF8484FF084
:10516000FF31816201214161C460BDE81C4000F053
:1051700031BF1CBD502080F31188BFF34F8FBFF3A8
:105180006F8FEF490020486100F05ABFEC48C068BB
:10519000704710B500F09FFFE948C06810BDE848AF
:1051A0008068704710B510B104461CB10AE0E448AD
:1051B0000468FAE740F68C02AFF2C041AFF2A840B3
:1051C00001F054FB04F1340010BD70B50D4604002D
:1051D00007D140F60632AFF2DC41AFF2C44001F035
:1051E00045FBD748016820461831FEF727FF2846BF
:1051F000BDE87040012106E52DE9F04117460E4655
:10520000050007D140F61732AFF21051AFF2F84067
:1052100001F02CFBCA4C206B38B940F61B32AFF2C0
:105220002451AFF20C5001F021FB216846F0004000
:105230008861216828461831FEF7F4FE3846BDE83B
:10524000F0410121DFE470B514460E46050007D198
:1052500040F63132AFF25C51AFF2445001F006FB40
:10526000B748016828461831FEF7DCFE0CB14FF054
:10527000FF3621463046BDE87040C4E42DE9F041D8
:10528000C068C4683CB940F66132AFF29051AFF2E9
:10529000785001F0EBFA04F118000746FEF7E6FE3D
:1052A000A74D286B012658B13946A648FEF7BAFE2D
:1052B000E06A2968C96A884212D90120EE61D4E403
:1052C000201DFEF7D3FEE06A2A6906FA00F11143B9
:1052D00029619D4900EB800001EB8000211DE5E77D
:1052E0000020C2E470B5964D06460C46286B38B9CE
:1052F00040F69932AFF2FC51AFF2E45001F0B6FA49
:1053000044F000403060F4683CB940F6A132AFF29E
:105310001461AFF2FC5001F0A9FA3046FEF7A6FE88
:10532000201DFEF7A3FEE06A01262A6906FA00F1B5
:1053300011432961844900EB800001EB8000211DAD
:10534000FEF770FEE06A2968C96A884202D9012026
:10535000EE6170BD002070BD10B5040007D140F6AD
:10536000C132AFF26861AFF2506001F07FFA744869
:10537000016A2160C068606010BD70B50D46040010
:1053800007D140F6CB32AFF28C61AFF2746001F01E
:105390006DFA3DB940F6CC32AFF2A061AFF2886051
:1053A00001F064FA00F058FE654AD06829684B1C89
:1053B0000FD02368126A934202D0626882420AD9EF
:1053C0006268801A884206D2081A28602046FFF7D1
:1053D000C3FF002400E0012400F058FE204670BD09
:1053E00057490120C86170475548416919B1006BA0
:1053F00018B10020704701207047022070475049C3
:1054000008680A688069D26A0968C2F120028A6164
:10541000704770B50C46064600F01EFE484D2868E1
:10542000406C80B92968012081F848005CB10121F5
:105430002046FFF7E8FB45494FF080500860BFF376
:105440004F8FBFF36F8F00F021FE00F005FE28683C
:10545000446C002034B116B12968486402E02A681F
:10546000611E5164296881F8480000F00FFE204653
:1054700070BD2DE9F0411E4615468846074600F0EE
:10548000EBFD2F4C206890F84800022814D02068CB
:10549000416CB94341642168012081F848005EB144
:1054A00001213046FFF7AFFB28494FF080500860DC
:1054B000BFF34F8FBFF36F8F00F0E8FD00F0CCFD1E
:1054C00015B12068406C2860206890F848000128D9
:1054D0000DD02068416C21EA080141640125216852
:1054E000002081F8480000F0D1FD284620E4002586
:1054F000F5E72DE9F0411F4690460D4604004FF0B8
:10550000010607D141F2FD02AFF61001AFF2F870CB
:1055100001F0ACF900F0A0FD0FB1606C386094F8B8
:105520004800022184F84810B8F1050F17D2DFE8CF
:1055300008F016030F151300616C29430AE0000000
:105540006C000020000400205801002004ED00E061
:10555000616C491C616402E0022803D06564012883
:1055600002D02AE0002628E0201DFEF77FFDC34D73
:10557000E06A01212A69814011432961C04900EB99
:10558000800001EB8000211DFEF74CFDA06A38B1C0
:1055900041F23512AFF69C01AFF6840001F066F9D6
:1055A000E06A2968C96A884207D9B6494FF0805035
:1055B0000860BFF34F8FBFF36F8F00F067FD304679
:1055C00087E52DE9F0471F46DDF8209092460D460D
:1055D00004004FF0010807D141F26812AFF6E40170
:1055E000AFF6CC0001F042F900F075FD5020EFF36A
:1055F000118680F31188BFF34F8FBFF36F8F0FB108
:10560000606C386094F84800022184F84810BAF1C0
:10561000050F0ED2DFE80AF00D03060C0A00616CDC
:10562000294301E0616C491C616402E0022803D057
:105630006564012803D031E04FF000082EE0A06A35
:1056400038B141F2AF12AFF64C11AFF6341001F0A1
:105650000DF98A4D286B012778B104F118018A48A9
:10566000FEF7E0FCE06A2968C96A884216D9B9F1F8
:10567000000F12D0C9F8007010E0201DFEF7F6FCF4
:10568000E06A2A6907FA00F11143296100EB800101
:105690007B4800EB8100211DE2E7EF6186F3118872
:1056A0004046BDE8F0872DE9F0418846040007D167
:1056B00041F2E312AFF6BC11AFF6A41001F0D6F838
:1056C00000F009FD5020EFF3118780F31188BFF33C
:1056D0004F8FBFF36F8F94F84800022184F8481071
:1056E000616C491C616401282ED1A06A38B141F275
:1056F0000922AFF6F811AFF6E01001F0B7F85F4DF0
:10570000286B012678B104F118015F48FEF78AFC86
:10571000E06A2968C96A884216D9B8F1000F12D028
:10572000C8F8006010E0201DFEF7A0FCE06A2A69BE
:1057300006FA00F111432961514900EB800001EBA9
:105740008000211DE2E7EE6187F31188C1E410B506
:1057500058B1044600F080FC94F84800022807D0B5
:10576000002400F093FC204610BD44480468F1E793
:10577000002084F848000124F3E72DE9F0470E46A5
:10578000DDE9098482466FF00301206B01EB8201A1
:105790000844089D20F007079946780705D040F295
:1057A0002B323AA140A001F061F800202218315CB0
:1057B00082F83410315C11B1401C1028F6D3002659
:1057C00084F84360202D00D31F25201DE562FEF7DD
:1057D00026FC04F11800FEF722FC2461C5F120002C
:1057E0006462A061666484F848604A46514638465F
:1057F00000F0D3FB2060B8F1000F01D0C8F80040E2
:105800004FE71E48416B096829B1416BC968C968F7
:105810004968816270474FF0FF31FAE710B50446DE
:10582000006B00F02EFB2046BDE8104000F029BBC5
:1058300070B5154E114D14361CE0FFF717FA30689D
:1058400020B10024FFF784F9A4B901E00124F9E7AD
:1058500000F002FCF068C468201DFEF707FCA86891
:10586000401EA8606868401E686000F00FFC20467B
:10587000FFF7D4FF68680028DFD170BD6C000020FE
:105880005801002004ED00E0000400202E2E5C2EC4
:105890002E5C4672656552544F535C7372635C7440
:1058A00061736B732E6300004572726F723A2573D9
:1058B0002C25640D0A00000070B500244160FF4DE6
:1058C0000061914206D8D11A8269914206D2011D27
:1058D000286907E09A4203D2994201D3012403E0E8
:1058E000011DE868FEF7AAFB204670BD2DE9FE4FBA
:1058F0009946DDF830A090460D4606004FF00007AF
:1059000005D14FF4D372EEA1F4A000F0AFFFEB4C41
:10591000206880B1CDE900580296062D10DAFFF715
:1059200063FD02284FF0000308D00022694620687A
:10593000FEF772FC07463846BDE8FE8F5246F5E793
:1059400000234A466946FEF70DFDF3E770B586B0C1
:10595000DA4E4CE00198002849DB039C606910B1E5
:10596000201DFEF783FB04A800F01FF905460198EF
:105970000A283CD2DFE800F00505053B273805057D
:105980003B270298A169034601442A462046FFF7B7
:1059900093FF00282BD0616A20468847E0690128E0
:1059A00025D1002000900298A169002342181946D1
:1059B0002046FFF79BFFD0B940F22132C0A1C7A01B
:1059C00000F054FF13E00298A06128B94FF44E7222
:1059D000BBA1C2A000F04AFFA0692B4641191A469C
:1059E0002046FFF769FF02E0204600F04AFA002354
:1059F0001A4601A93068FEF780FD0028AAD106B03A
:105A000070BDAE4CE068016839B1002139B10020A9
:105A100000F0DDF8FFF79AFFF4E70121F6E7C06830
:105A20000068F5E710B500F017FBA44C2068A0B99A
:105A3000AE48FEF7E9FAAD481430FEF7E5FAAB4898
:105A4000E0601430206100220C210A20FEF760FB88
:105A5000206010B1A6A1FEF7F4FEBDE8104000F0F2
:105A600015BB1CB50024FFF7DDFF9448006868B142
:105A700092491F20091DCDE9000100234FF48072D7
:105A80009DA19F48FEF78FFF040005D140F233121D
:105A90008BA192A000F0EAFE20461CBD2DE9F04744
:105AA0000746994616460D462820DDF820A000F04E
:105AB0007DF9040014D0B8464F46D1462DB94FF4B5
:105AC000C67290A196A000F0D1FEFFF7ABFF04F1E3
:105AD0001801C4F8008081E8E002201DFEF79FFA5B
